{
  "contractName": "Loans",
  "abi": [
    {
      "inputs": [],
      "stateMutability": "nonpayable",
      "type": "constructor"
    },
    {
      "inputs": [],
      "name": "loansCount",
      "outputs": [
        {
          "internalType": "uint256",
          "name": "",
          "type": "uint256"
        }
      ],
      "stateMutability": "view",
      "type": "function",
      "constant": true
    },
    {
      "inputs": [
        {
          "internalType": "uint256",
          "name": "",
          "type": "uint256"
        }
      ],
      "name": "loansList",
      "outputs": [
        {
          "internalType": "uint256",
          "name": "id",
          "type": "uint256"
        },
        {
          "internalType": "uint256",
          "name": "createDate",
          "type": "uint256"
        },
        {
          "internalType": "string",
          "name": "description",
          "type": "string"
        },
        {
          "internalType": "uint256",
          "name": "totalAmount",
          "type": "uint256"
        },
        {
          "internalType": "uint256",
          "name": "payedAmount",
          "type": "uint256"
        },
        {
          "internalType": "uint256",
          "name": "debtAmount",
          "type": "uint256"
        },
        {
          "internalType": "string",
          "name": "status",
          "type": "string"
        }
      ],
      "stateMutability": "view",
      "type": "function",
      "constant": true
    },
    {
      "inputs": [],
      "name": "owner",
      "outputs": [
        {
          "internalType": "address",
          "name": "",
          "type": "address"
        }
      ],
      "stateMutability": "view",
      "type": "function",
      "constant": true
    },
    {
      "inputs": [
        {
          "internalType": "string",
          "name": "description",
          "type": "string"
        },
        {
          "internalType": "uint256",
          "name": "amount",
          "type": "uint256"
        }
      ],
      "name": "addLoan",
      "outputs": [],
      "stateMutability": "nonpayable",
      "type": "function"
    },
    {
      "inputs": [
        {
          "internalType": "int256",
          "name": "id",
          "type": "int256"
        }
      ],
      "name": "getLoanList",
      "outputs": [
        {
          "components": [
            {
              "internalType": "uint256",
              "name": "id",
              "type": "uint256"
            },
            {
              "internalType": "uint256",
              "name": "createDate",
              "type": "uint256"
            },
            {
              "internalType": "string",
              "name": "description",
              "type": "string"
            },
            {
              "internalType": "uint256",
              "name": "totalAmount",
              "type": "uint256"
            },
            {
              "internalType": "uint256",
              "name": "payedAmount",
              "type": "uint256"
            },
            {
              "internalType": "uint256",
              "name": "debtAmount",
              "type": "uint256"
            },
            {
              "internalType": "string",
              "name": "status",
              "type": "string"
            }
          ],
          "internalType": "struct Loans.Loan[]",
          "name": "",
          "type": "tuple[]"
        }
      ],
      "stateMutability": "view",
      "type": "function",
      "constant": true
    }
  ],
  "bytecode": "0x608060405234801561001057600080fd5b50336000806101000a81548173ffffffffffffffffffffffffffffffffffffffff021916908373ffffffffffffffffffffffffffffffffffffffff16021790555060006001819055506111ab806100686000396000f3fe608060405234801561001057600080fd5b50600436106100575760003560e01c80633c852a391461005c5780633fc811fd146100785780638da5cb5b146100ae5780639d11ed75146100cc578063c8818d35146100ea575b600080fd5b61007660048036038101906100719190610b54565b61011a565b005b610092600480360381019061008d9190610bb0565b6102be565b6040516100a59796959493929190610c74565b60405180910390f35b6100b6610410565b6040516100c39190610d32565b60405180910390f35b6100d4610434565b6040516100e19190610d4d565b60405180910390f35b61010460048036038101906100ff9190610d9e565b61043a565b6040516101119190610f89565b60405180910390f35b60008054906101000a900473ffffffffffffffffffffffffffffffffffffffff1673ffffffffffffffffffffffffffffffffffffffff163373ffffffffffffffffffffffffffffffffffffffff16146101a8576040517f08c379a000000000000000000000000000000000000000000000000000000000815260040161019f90610ff7565b60405180910390fd5b6040518060e00160405280600180546101c19190611046565b8152602001428152602001838152602001828152602001600081526020018281526020016040518060400160405280600181526020017f4300000000000000000000000000000000000000000000000000000000000000815250815250600260006001548152602001908152602001600020600082015181600001556020820151816001015560408201518160020190805190602001906102639291906108e4565b50606082015181600301556080820151816004015560a0820151816005015560c082015181600601908051906020019061029e9291906108e4565b50905050600160008154809291906102b59061109c565b91905055505050565b60026020528060005260406000206000915090508060000154908060010154908060020180546102ed90611114565b80601f016020809104026020016040519081016040528092919081815260200182805461031990611114565b80156103665780601f1061033b57610100808354040283529160200191610366565b820191906000526020600020905b81548152906001019060200180831161034957829003601f168201915b50505050509080600301549080600401549080600501549080600601805461038d90611114565b80601f01602080910402602001604051908101604052809291908181526020018280546103b990611114565b80156104065780601f106103db57610100808354040283529160200191610406565b820191906000526020600020905b8154815290600101906020018083116103e957829003601f168201915b5050505050905087565b60008054906101000a900473ffffffffffffffffffffffffffffffffffffffff1681565b60015481565b606060008054906101000a900473ffffffffffffffffffffffffffffffffffffffff1673ffffffffffffffffffffffffffffffffffffffff163373ffffffffffffffffffffffffffffffffffffffff16146104ca576040517f08c379a00000000000000000000000000000000000000000000000000000000081526004016104c190610ff7565b60405180910390fd5b6060600083126106cf57600060015411156106ca57600167ffffffffffffffff8111156104fa576104f96109f3565b5b60405190808252806020026020018201604052801561053357816020015b61052061096a565b8152602001906001900390816105185790505b509050600260008481526020019081526020016000206040518060e0016040529081600082015481526020016001820154815260200160028201805461057890611114565b80601f01602080910402602001604051908101604052809291908181526020018280546105a490611114565b80156105f15780601f106105c6576101008083540402835291602001916105f1565b820191906000526020600020905b8154815290600101906020018083116105d457829003601f168201915b5050505050815260200160038201548152602001600482015481526020016005820154815260200160068201805461062890611114565b80601f016020809104026020016040519081016040528092919081815260200182805461065490611114565b80156106a15780601f10610676576101008083540402835291602001916106a1565b820191906000526020600020905b81548152906001019060200180831161068457829003601f168201915b505050505081525050816000815181106106be576106bd611146565b5b60200260200101819052505b6108db565b60015467ffffffffffffffff8111156106eb576106ea6109f3565b5b60405190808252806020026020018201604052801561072457816020015b61071161096a565b8152602001906001900390816107095790505b50905060005b6001548110156108d957600260008281526020019081526020016000206040518060e0016040529081600082015481526020016001820154815260200160028201805461077690611114565b80601f01602080910402602001604051908101604052809291908181526020018280546107a290611114565b80156107ef5780601f106107c4576101008083540402835291602001916107ef565b820191906000526020600020905b8154815290600101906020018083116107d257829003601f168201915b5050505050815260200160038201548152602001600482015481526020016005820154815260200160068201805461082690611114565b80601f016020809104026020016040519081016040528092919081815260200182805461085290611114565b801561089f5780601f106108745761010080835404028352916020019161089f565b820191906000526020600020905b81548152906001019060200180831161088257829003601f168201915b5050505050815250508282815181106108bb576108ba611146565b5b602002602001018190525080806108d19061109c565b91505061072a565b505b80915050919050565b8280546108f090611114565b90600052602060002090601f0160209004810192826109125760008555610959565b82601f1061092b57805160ff1916838001178555610959565b82800160010185558215610959579182015b8281111561095857825182559160200191906001019061093d565b5b50905061096691906109a7565b5090565b6040518060e00160405280600081526020016000815260200160608152602001600081526020016000815260200160008152602001606081525090565b5b808211156109c05760008160009055506001016109a8565b5090565b6000604051905090565b600080fd5b600080fd5b600080fd5b600080fd5b6000601f19601f8301169050919050565b7f4e487b7100000000000000000000000000000000000000000000000000000000600052604160045260246000fd5b610a2b826109e2565b810181811067ffffffffffffffff82111715610a4a57610a496109f3565b5b80604052505050565b6000610a5d6109c4565b9050610a698282610a22565b919050565b600067ffffffffffffffff821115610a8957610a886109f3565b5b610a92826109e2565b9050602081019050919050565b82818337600083830152505050565b6000610ac1610abc84610a6e565b610a53565b905082815260208101848484011115610add57610adc6109dd565b5b610ae8848285610a9f565b509392505050565b600082601f830112610b0557610b046109d8565b5b8135610b15848260208601610aae565b91505092915050565b6000819050919050565b610b3181610b1e565b8114610b3c57600080fd5b50565b600081359050610b4e81610b28565b92915050565b60008060408385031215610b6b57610b6a6109ce565b5b600083013567ffffffffffffffff811115610b8957610b886109d3565b5b610b9585828601610af0565b9250506020610ba685828601610b3f565b9150509250929050565b600060208284031215610bc657610bc56109ce565b5b6000610bd484828501610b3f565b91505092915050565b610be681610b1e565b82525050565b600081519050919050565b600082825260208201905092915050565b60005b83811015610c26578082015181840152602081019050610c0b565b83811115610c35576000848401525b50505050565b6000610c4682610bec565b610c508185610bf7565b9350610c60818560208601610c08565b610c69816109e2565b840191505092915050565b600060e082019050610c89600083018a610bdd565b610c966020830189610bdd565b8181036040830152610ca88188610c3b565b9050610cb76060830187610bdd565b610cc46080830186610bdd565b610cd160a0830185610bdd565b81810360c0830152610ce38184610c3b565b905098975050505050505050565b600073ffffffffffffffffffffffffffffffffffffffff82169050919050565b6000610d1c82610cf1565b9050919050565b610d2c81610d11565b82525050565b6000602082019050610d476000830184610d23565b92915050565b6000602082019050610d626000830184610bdd565b92915050565b6000819050919050565b610d7b81610d68565b8114610d8657600080fd5b50565b600081359050610d9881610d72565b92915050565b600060208284031215610db457610db36109ce565b5b6000610dc284828501610d89565b91505092915050565b600081519050919050565b600082825260208201905092915050565b6000819050602082019050919050565b610e0081610b1e565b82525050565b600082825260208201905092915050565b6000610e2282610bec565b610e2c8185610e06565b9350610e3c818560208601610c08565b610e45816109e2565b840191505092915050565b600060e083016000830151610e686000860182610df7565b506020830151610e7b6020860182610df7565b5060408301518482036040860152610e938282610e17565b9150506060830151610ea86060860182610df7565b506080830151610ebb6080860182610df7565b5060a0830151610ece60a0860182610df7565b5060c083015184820360c0860152610ee68282610e17565b9150508091505092915050565b6000610eff8383610e50565b905092915050565b6000602082019050919050565b6000610f1f82610dcb565b610f298185610dd6565b935083602082028501610f3b85610de7565b8060005b85811015610f775784840389528151610f588582610ef3565b9450610f6383610f07565b925060208a01995050600181019050610f3f565b50829750879550505050505092915050565b60006020820190508181036000830152610fa38184610f14565b905092915050565b7f4163636573732064656e69656400000000000000000000000000000000000000600082015250565b6000610fe1600d83610bf7565b9150610fec82610fab565b602082019050919050565b6000602082019050818103600083015261101081610fd4565b9050919050565b7f4e487b7100000000000000000000000000000000000000000000000000000000600052601160045260246000fd5b600061105182610b1e565b915061105c83610b1e565b9250827fffffffffffffffffffffffffffffffffffffffffffffffffffffffffffffffff0382111561109157611090611017565b5b828201905092915050565b60006110a782610b1e565b91507fffffffffffffffffffffffffffffffffffffffffffffffffffffffffffffffff8214156110da576110d9611017565b5b600182019050919050565b7f4e487b7100000000000000000000000000000000000000000000000000000000600052602260045260246000fd5b6000600282049050600182168061112c57607f821691505b602082108114156111405761113f6110e5565b5b50919050565b7f4e487b7100000000000000000000000000000000000000000000000000000000600052603260045260246000fdfea26469706673582212200a78a9d2512ea49d6902a7ddd5d0ffa5e39c1bd7fba5121c03231a497e2abcbd64736f6c634300080b0033",
  "immutableReferences": {},
  "source": "// SPDX-License-Identifier: GPL-3.0\r\npragma solidity >=0.4.22 <0.9.0;\r\n\r\ncontract Loans {\r\n    address public owner;\r\n\r\n    uint public loansCount; \r\n\r\n    struct Loan{\r\n        uint id;\r\n        uint createDate;\r\n        string description;\r\n        uint totalAmount;\r\n        uint payedAmount;\r\n        uint debtAmount;\r\n        string status;\r\n    }\r\n\r\n    mapping (uint => Loan) public loansList; \r\n\r\n    constructor() {\r\n        owner = msg.sender;\r\n        loansCount = 0;            \r\n    }   \r\n\r\n    modifier restricted () {\r\n        require(msg.sender == owner, \"Access denied\");\r\n        _;\r\n    }  \r\n\r\n    function addLoan(string memory description, uint amount ) public restricted() {\r\n        loansList[loansCount]=Loan(loansCount+1, block.timestamp, description, amount, 0, amount, \"C\");\r\n        loansCount++;\r\n    }\r\n\r\n    function getLoanList(int id) public restricted() view returns (Loan[] memory ) {\r\n        Loan[] memory lList;\r\n\r\n        if (id >= 0) {\r\n            if (loansCount > 0) {        \r\n                lList = new Loan[](1);\r\n                lList[0]=loansList[uint(id)];\r\n                }\r\n            }\r\n        else {\r\n            lList = new Loan[](loansCount);\r\n            for (uint i=0; i<loansCount; i++)\r\n            {    \r\n                lList[i]=loansList[i];            \r\n            }\r\n        }\r\n            \r\n        return lList;\r\n        }\r\n    }\r\n",
  "sourcePath": "C:\\Users\\Lenovo\\Documents\\Bootcamp-Etherium\\Bootcamp Etherium - Api\\contracts\\Loans.sol",
  "compiler": {
    "name": "solc",
    "version": "0.8.11+commit.d7f03943.Emscripten.clang"
  },
  "schemaVersion": "3.4.4",
  "updatedAt": "2022-03-16T20:01:40.171Z",
  "networkType": "ethereum",
  "devdoc": {
    "kind": "dev",
    "methods": {},
    "version": 1
  },
  "userdoc": {
    "kind": "user",
    "methods": {},
    "version": 1
  }
}